:100000000C9446000C945D000C945D000C945D0013
:100010000C945D000C945D000C945D000C945D00EC
:100020000C945D000C945D000C945D000C945D00DC
:100030000C945D000C945D000C945D000C945D00CC
:100040000C945D000C945D000C945D000C945D00BC
:100050000C945D000C945D000C945D000C945D00AC
:100060000C945D000C945D000C945D000C945D009C
:100070000C945D000C945D000C945D000C945D008C
:100080000C945D000C945D000C945D0011241FBE67
:10009000CFEFD0E4DEBFCDBF11E0A0E0B1E0ECEDEA
:1000A000F1E000E00BBF02C007900D92AE30B10747
:1000B000D9F70E9488000C94EC000C940000CF93B8
:1000C000DF9300D01F92CDB7DEB789837B836A832D
:1000D00089818A3031F48A819B81BC018DE00E9444
:1000E0005F0080EC90E0FC018081882F90E08072BE
:1000F00099270097B1F386EC90E02981FC012083D9
:1001000080E090E00F900F900F90DF91CF910895D5
:10011000CF93DF9300D0CDB7DEB784E290E02EEF2F
:10012000FC01208385E290E0FC0110828AE290E0ED
:10013000FC0110828BE290E02FEFFC0120831A82F9
:1001400019821A82198285E290E0FC01108289E20C
:1001500090E0FC018081882F90E09A8389838981D7
:100160009A81880F991F9A83898385E290E0FC0128
:100170008081882F90E081709927009729F08981EC
:100180009A8101969A83898389819A81863491051F
:1001900050F085E290E025E230E0F9012081226014
:1001A000FC01208318C089819A818530910550F027
:1001B00085E290E025E230E0F90120812460FC0135
:1001C000208309C085E290E025E230E0F90120813A
:0C01D000297FFC012083B5CFF894FFCFFD
:0E01DC0000000002000000005F0000000000B4
:00000001FF
